{
  "contractName": "Electric",
  "abi": [
    {
      "constant": true,
      "inputs": [],
      "name": "numerito",
      "outputs": [
        {
          "internalType": "uint256",
          "name": "",
          "type": "uint256"
        }
      ],
      "payable": false,
      "stateMutability": "view",
      "type": "function"
    },
    {
      "constant": true,
      "inputs": [],
      "name": "taskCount",
      "outputs": [
        {
          "internalType": "uint256",
          "name": "",
          "type": "uint256"
        }
      ],
      "payable": false,
      "stateMutability": "view",
      "type": "function"
    }
  ],
  "bytecode": "0x608060405260008055600260015534801561001957600080fd5b5060b0806100286000396000f3fe6080604052348015600f57600080fd5b506004361060325760003560e01c806317636b59146037578063b6cb58a5146053575b600080fd5b603d606f565b6040518082815260200191505060405180910390f35b60596075565b6040518082815260200191505060405180910390f35b60015481565b6000548156fea265627a7a72315820cdd2ebbd7184669cc7e44a7b1d1ee2d6db55ceca2809840098643f68504fdbff64736f6c63430005100032",
  "source": "// SPDX-License-Identifier: MIT\r\npragma solidity >=0.4.22 <0.8.0;\r\n\r\n\r\ncontract Electric {\r\n    //state variable, son escritas al blockchain, representan el estado del contrato en el blockchain\r\n    uint256 public taskCount = 0;\r\n    uint256 public numerito = 2;\r\n}\r\n\r\n",
  "sourcePath": "C:/Universidad/Ultimo semestre/Seguridad Criptografica/Trabajo Investigación/SeguridadCriptografica_SmartContracts/contracts/prueba3.sol",
  "compiler": {
    "name": "solc",
    "version": "0.5.16+commit.9c3226ce.Emscripten.clang"
  },
  "schemaVersion": "3.3.0",
  "updatedAt": "2020-10-15T20:04:12.660Z",
  "networkType": "ethereum",
  "devdoc": {
    "methods": {}
  },
  "userdoc": {
    "methods": {}
  }
}